:100000000C9458000C9480000C9480000C94800098
:100010000C9480000C9480000C9480000C94800060
:100020000C9480000C9480000C9480000C94800050
:100030000C9480000C9480000C9480000C94800040
:100040000C94CC030C9480000C9480000C948000E1
:100050000C9480000C9480000C9480000C94800020
:100060000C9416040C948000000000002500280069
:100070002B00040404040404040402020202020229
:10008000030303030303010204081020408001025C
:1000900004081020010204081020000000080002DB
:1000A0000100000304070000000000000000350507
:1000B00011241FBECFEFD8E0DEBFCDBF11E0A0E01E
:1000C000B1E0E0EBFCE002C005900D92A833B1076F
:1000D000D9F722E0A8E3B1E001C01D92A331B20735
:1000E000E1F710E0C8E5D0E004C02197FE010E94CE
:1000F0005006C735D107C9F70E9455050C9456061E
:100100000C94000090E0FC01E656FF4F2491FC01A6
:10011000EA57FF4F3491FC01EE58FF4FE491EE2374
:10012000C9F0222339F0233001F1A8F4213019F16C
:10013000223029F1F0E0EE0FFF1FE859FF4FA591A3
:10014000B4918FB7F894EC91611126C030953E239D
:100150003C938FBF08952730A9F02830C9F0243090
:1001600049F7809180008F7D03C0809180008F7758
:1001700080938000DFCF84B58F7784BDDBCF84B5DB
:100180008F7DFBCF8091B0008F778093B000D2CF6E
:100190008091B0008F7DF9CF3E2BDACF3FB7F89436
:1001A0008091F7019091F801A091F901B091FA01C5
:1001B00026B5A89B05C02F3F19F00196A11DB11DC2
:1001C0003FBFBA2FA92F982F8827BC01CD01620FFE
:1001D000711D811D911D42E0660F771F881F991FB9
:1001E0004A95D1F708958F929F92AF92BF92CF9286
:1001F000DF92EF92FF924B015C010E94CE006B01F7
:100200007C010E94CE006C197D098E099F09683E11
:10021000734081059105A8F321E0821A9108A10895
:10022000B10888EEC80E83E0D81EE11CF11C8114D1
:100230009104A104B10429F7FF90EF90DF90CF90D3
:10024000BF90AF909F908F90089508950895AF92BA
:10025000BF92CF92DF92EF92FF920F931F93CF93B3
:10026000DF936C017B018B01040F151FEB015E0115
:10027000AE18BF08C017D10759F06991D601ED91AA
:10028000FC910190F081E02DC6010995892B79F749
:10029000C501DF91CF911F910F91FF90EF90DF90FB
:1002A000CF90BF90AF900895089520917901260FC7
:1002B0003327331F21323105ECF42091C201FC01B8
:1002C00090E080E0243069F082E00895A091790107
:1002D0002191AC01475A5E4FA40FB52FB11D2C934D
:1002E0000196861798F380917901680F60937901E0
:1002F00080E0089581E008951092C20181E080932A
:10030000C10110929C0161E082E10E94820061E0E3
:1003100083E10E948200E9EBF0E080818E7F8083A0
:1003200080818D7F808388E48093B80085E480930A
:10033000BC000895CF93DF9391E0909358018823F8
:10034000B9F0C091B800D091BA008091BC008A7B0E
:100350008093BC0060E082E10E94820060E083E163
:100360000E9482000E947C01D093BA00C093B80022
:10037000DF91CF9108950895E091F1018091F0010E
:10038000E81730F4F0E0E85CFE4F808190E00895DB
:100390008FEF9FEF08959091F1018091F0012FEF81
:1003A0003FEF981748F4E92FF0E0E85CFE4F20811A
:1003B00030E09F5F9093F101C90108958091F001B1
:1003C0009091F101891B990B0895CF92DF92EF92E2
:1003D000FF920F931F93CF93DF937C01CB018A0190
:1003E0002091C801222389F0EB016B01C40ED51EB8
:1003F000CC15DD0569F06991D701ED91FC91019073
:10040000F081E02DC7010995F3CF642F0E945501BB
:10041000C801DF91CF911F910F91FF90EF90DF9076
:10042000CF900895CF93DF931F92CDB7DEB7698346
:100430002091C8012223F9F02091EE01203258F0DA
:1004400021E030E0FC013383228390E080E00F90D4
:10045000DF91CF9108958091EF01E82FF0E0E7530D
:10046000FE4F998190838F5F8093EF018093EE011F
:1004700081E090E0ECCF61E0CE0101960E94550151
:10048000F7CFCF92DF92EF92FF920F931F93CF930C
:10049000DF93FC01C48121E02093C801C093E901EE
:1004A0001092EF011092EE018385682B8BEF91E0A3
:1004B0000E941202D091EE01D13208F092C00E9447
:1004C000CE006B017C018091C201811165C082E088
:1004D0008093C20181E08093C1018FEF8093C001BE
:1004E0001092BF01D093BE01A9ECB1E0EEE9F1E0BA
:1004F00080E0D81385C010929D0180919D01CC0FA2
:10050000C82BC0939D0180919C01813009F07CC073
:1005100010929C010E94CE006B017C0180919D0194
:100520008093BB008091C4019091C501A091C60148
:10053000B091C701892B8A2B8B2B99F00E94CE009A
:100540000091C4011091C5012091C6013091C701ED
:100550006C197D098E099F090617170728073907A7
:10056000E0F18091BC0083FDD9CF85EC8093BC0085
:100570000E94CE006B017C018091C201823009F49F
:1005800045C08091C0018F3F61F18091C0018032F0
:1005900041F18091C00125C08091C4019091C501B5
:1005A000A091C601B091C701892B8A2B8B2B09F42E
:1005B0008ACF0E94CE000091C4011091C501209104
:1005C000C6013091C7016C197D098E099F09061774
:1005D00017072807390708F076CF8091C3010E94DA
:1005E0009A011092EF011092EE011092C801DF9172
:1005F000CF911F910F91FF90EF90DF90CF900895D2
:100600009D9191938F5F75CF85EEB0CF8091C4019E
:100610009091C501A091C601B091C701892B8A2B89
:100620008B2B09F4A9CF0E94CE000091C401109138
:10063000C5012091C6013091C7016C197D098E0951
:100640009F09061717072807390708F095CFC5CF68
:1006500090E080E008950F931F93CF938C01C62FF5
:100660000E9441026C2F6460C8010E9441026C2FFD
:100670006B7FC8010E94410283EC90E00197F1F783
:10068000CF911F910F9108950F931F93CF93DF93F5
:100690008C01D62FC42F607F642B0E942B0380E136
:1006A000D89FB00111246C2BC801DF91CF911F910D
:1006B0000F910C942B03CF93DF93CDB7DEB7289720
:1006C0000FB6F894DEBF0FBECDBF98E0E0E0F1E0DA
:1006D000DE01119601900D929A95E1F790910F022B
:1006E000961708F46FEF262F30E0220F331F41E0FA
:1006F00050E04C0F5D1F240F351FF9016081680F1A
:10070000606840E087E092E028960FB6F894DEBF7C
:100710000FBECDBFDF91CF910C94440341E00E9406
:10072000440381E090E0089585ED8093BC008091C2
:10073000C4019091C501A091C601B091C70107966F
:10074000A11DB11D23E0B695A795979587952A958C
:10075000D1F72091BC0024FD03C01092C20108957E
:100760004091C4015091C5016091C6017091C701CB
:10077000452B462B472B69F30097A105B10541F0A6
:100780002AE22A95F1F700C00197A109B109E1CF4A
:100790008091C3010C949A011F920F920FB60F9291
:1007A00011242F933F938F939F93AF93BF93809187
:1007B000F3019091F401A091F501B091F60130910F
:1007C000F20123E0230F2D3758F50196A11DB11D2D
:1007D0002093F2018093F3019093F401A093F5012B
:1007E000B093F6018091F7019091F801A091F90181
:1007F000B091FA010196A11DB11D8093F70190936C
:10080000F801A093F901B093FA01BF91AF919F91C4
:100810008F913F912F910F900FBE0F901F901895C1
:1008200026E8230F0296A11DB11DD2CF1F920F9271
:100830000FB60F9211242F933F934F935F936F93B3
:100840007F938F939F93AF93BF93EF93FF93809189
:10085000B900887F803609F44AC0F0F5883209F47F
:10086000A7C018F5803109F49BC0B8F4882309F4B7
:10087000F9C0883009F494C0FF91EF91BF91AF9116
:100880009F918F917F916F915F914F913F912F91A8
:100890000F900FBE0F901F901895883109F488C0F3
:1008A000803251F78093C00114C0803409F49DC098
:1008B00040F48033B9F38833F9F68093C00185ECB6
:1008C000B0C0803509F485C0883509F496C08834F5
:1008D00099F60E949403D0CF883909F48CC038F57A
:1008E000883729F050F4883611F0803729F683E0F4
:1008F0008093C20110929B0157C0883809F47BC0D5
:10090000803919F0803809F0B7CF80919B0180328F
:1009100008F071C0E0919B0181E08E0F80939B01F4
:100920008091BB00F0E0E558FE4F80833DC0803BE6
:1009300039F0E0F4803A09F479C0883A09F09CCFA4
:1009400084E08093C20110927A0110927901E091C3
:10095000EC01F091ED0109958091790181110FC0B1
:1009600081E0809379011092590109C0803C09F41B
:10097000A6CF883C09F4A3CF883B09F07DCFE09156
:100980007A0181E08E0F80937A01F0E0E75AFE4F02
:1009900080818093BB0090917A018091790129C078
:1009A00080919D018093BB0085EC8093BC0064CF57
:1009B0009091BF018091BE01981758F5E091BF0159
:1009C00081E08E0F8093BF01F0E0E256FE4F808100
:1009D000E9CFE091BF0181E08E0F8093BF0180914C
:1009E000BB00F0E0E256FE4F80839091BF01809102
:1009F000BE019817C8F285E8D8CFE091BF0181E029
:100A00008E0F8093BF018091BB00F0E0E256FE4F55
:100A100080838091C10181115CCF81E080939C0132
:100A200084EA8093BC001092C20126CF85EC8093AB
:100A3000BC001092C20180919B01803230F4E091A1
:100A40009B01F0E0E558FE4F108260919B0170E041
:100A5000E091EA01F091EB018BE791E009951092AA
:100A60009B010ACF1092C00134CFEBEFF1E013826B
:100A7000128288EE93E0A0E0B0E084839583A683A1
:100A8000B7838CE091E091838083E7E0F2E013820A
:100A900012828EE191E09183808387E2848380E1FA
:100AA000818782E0828713860895789484B5826076
:100AB00084BD84B5816084BD85B5826085BD85B502
:100AC000816085BD80916E00816080936E00109280
:100AD00081008091810082608093810080918100FB
:100AE000816080938100809180008160809380008C
:100AF0008091B10084608093B1008091B0008160EA
:100B00008093B00080917A00846080937A00809115
:100B10007A00826080937A0080917A00816080936D
:100B20007A0080917A00806880937A001092C100E8
:100B30001092F1011092F0011092EF011092EE016B
:100B40000E947C0185E291E09093ED018093EC019D
:100B500086E291E09093EB018093EA0110920C02FF
:100B600080911102823018F098E090930C028093EB
:100B70000F0262E370E080E090E00E94F300609179
:100B8000120287E092E00E94410268EE73E080E08A
:100B900090E00E94F30060E387E092E00E942B0364
:100BA000CBE4D6E4CE010197F1F760E387E092E071
:100BB0000E942B032197F1F760E387E092E00E9407
:100BC0002B0383E592E00197F1F760E287E092E082
:100BD0000E942B0360910C02606240E087E092E08B
:100BE0000E94440384E080930D0240E06CE087E0C3
:100BF00092E00E94440340E061E087E092E00E94BE
:100C00004403CBE3DFE1CE010197F1F782E080936B
:100C10000E0240E066E087E092E00E94440340E07C
:100C200062E087E092E00E944403CE010197F1F771
:100C300088E08093120260E087E092E00E94410227
:100C400040E061E087E092E00E944403CE0101971A
:100C5000F1F740E062E087E092E00E9444032197D0
:100C6000F1F760E080E00E945B0346E050E066E25E
:100C700071E087E092E00E94270161E084E00E9439
:100C80005B034AE050E06DE271E087E092E00E9491
:100C90002701C0E0D0E02097F1F30E940000FBCFD5
:100CA000EE0FFF1F0590F491E02D0994F894FFCF0B
:100CB0000000400014005400000000001202E50192
:100CC0002803BB01DE01CB01BC01000000008E0344
:100CD0002701280354014A617965736800426861FD
:080CE0006E6461726B61720029
:00000001FF
